:100000000C943E000C945B000C945B000C945B0021
:100010000C945B000C945B000C945B000C945B00F4
:100020000C945B000C945B000C945B000C945B00E4
:100030000C945B000C945B000C945B000C945B00D4
:100040000C945B000C945B000C945B000C945B00C4
:100050000C945B000C945B000C945B000C945B00B4
:100060000C945B000C945B004E6F2046696C65201D
:1000700043726561746564210A0D000011241FBE7E
:10008000CFEFD8E0DEBFCDBF11E0A0E0B1E0E8EFF8
:10009000F2E702C005900D92A03AB107D9F716E039
:1000A000A0EAB1E001C01D92A93EB107E1F70E94AC
:1000B00024030C947A390C9400001F93182F8A3073
:1000C00019F48DE00E945D008091C00085FFFCCF97
:1000D0001093C60080E090E01F9108958091C000C9
:1000E00087FFFCCF8091C60008959C0181E007C086
:1000F00087BB1092B200B89BFECF2050314091E0F8
:1001000021303907A8F781E087BB822F8195809342
:10011000B200B89BFECF0895CF93DF93EC0105C0EA
:1001200088EE93E00E94750021972097C9F7DF9130
:10013000CF9108951F93CF93DF93EC018091C0007E
:1001400087FFFCCF8091C60010E017C0899390E034
:100150000E942836112321F0123011F0143021F4BE
:1001600080E290E00E9428361F5F153041F08091B8
:10017000C00087FFFCCF8091C6008D3039F7188210
:10018000112339F0123029F080E0143019F081E0A9
:1001900001C080E0DF91CF911F910895CF92DF924F
:1001A000EF92FF920F931F93DF93CF9300D000D075
:1001B000CDB7DEB77C01FC0101900020E9F7319753
:1001C000CE2EC81A8DB79EB708970FB6F8949EBF6B
:1001D0000FBE8DBFEDB7FEB731968E010F5F1F4F7B
:1001E000ADB7BEB712961C930E93119780E091E0C5
:1001F00093838283D70111968C9111978483158202
:1002000012968C91868317820E942F36EDB7FEB727
:1002100038960FB6F894FEBF0FBEEDBFC80160E080
:1002200070E040E150E00E946734D62ED7018C91F7
:10023000823511F0823781F4B3E0CB1609F084C027
:100240008D2D0E940E32182F00D000D0EDB7FEB7D2
:10025000319685E091E048C0873719F0873509F07D
:1002600062C0B5E0CB1609F06FC0EDB7FEB73897A6
:100270000FB6F894FEBF0FBEEDBF31968E010D5F35
:100280001F4FADB7BEB712961C930E93119780E027
:1002900091E093838283D70113968C911397848383
:1002A000158214968C91868317820E942F36EDB7A3
:1002B000FEB738960FB6F894FEBF0FBEEDBFC8016B
:1002C00060E070E040E150E00E9467348D2D0E94B4
:1002D0009A318D2D0E940E32182F00D000D0EDB72C
:1002E000FEB731968BE291E0ADB7BEB712969C9304
:1002F0008E931197D28213820E94ED35EDB7FEB72F
:1003000031968AE191E0ADB7BEB712969C938E9379
:100310001197128313820E94ED3581E00F900F90A8
:100320000F900F9014C0833789F0833579F000D097
:100330008EE391E0EDB7FEB7928381830E94ED35A5
:1003400080E00F900F9003C080E001C082E00F902A
:100350000F900F900F90CF91DF911F910F91FF9011
:10036000EF90DF90CF9008950F930E945B0C88234D
:1003700009F445C081EE99E06DE87BE042EE57E07C
:1003800023E93DE000E00E943E059093D60480936F
:10039000D504892B89F481EE99E06DE87BE042EE8B
:1003A00057E023E93DE00FEF0E943E059093D6040D
:1003B0008093D504892B19F18091D5049091D604AE
:1003C0000E94561E9093A3048093A2040097B9F054
:1003D0006FE471E044EA54E00E94FD308091A20491
:1003E0009091A30464EA74E00E9474309093DE0458
:1003F0008093DD0420E0892B19F021E001C020E08A
:10040000822F0F910895DB010D900020E9F71197DD
:10041000A61BB70BFC0180819181AD010E94A72C26
:100420000E94B60908950E948E318AB1826E8AB9FF
:10043000589A509887B1806F87B984B1836084B926
:100440001092C50080E18093C40022E02093C00098
:1004500088E18093C10086E08093C20084E891E047
:100460009093E4068093E3062093B100F8940895F6
:10047000EF92FF920F931F93CF93DF93EB018A01CB
:1004800079010BC0C701B8010E94BC35009729F45F
:10049000CE010E94291881E006C0CE01B7010E945A
:1004A000BD1C882379F7DF91CF911F910F91FF90A9
:1004B000EF900895EF92FF920F931F93DF93CF93E6
:1004C000CDB7DEB7E1970FB6F894DEBF0FBECDBF54
:1004D0008C017E010894E11CF11C97010E943802F6
:1004E000882319F420E030E005C0C801B7010E945C
:1004F000B5309C01C901E1960FB6F894DEBF0FBE7E
:10050000CDBFCF91DF911F910F91FF90EF90089594
:10051000BF92CF92DF92EF92FF920F931F93DF93E0
:10052000CF93CDB7DEB7C155D0400FB6F894DEBF3C
:100530000FBECDBF00D000D000D0EDB7FEB73196D2
:100540008E010F5F1F4FADB7BEB712961C930E936F
:10055000119781E5E82E81E0F82EF382E282158280
:1005600014820E942F36CC24DD24EDB7FEB73696D8
:100570000FB6F894FEBF0FBEEDBFBE2CEF2C1EC011
:100580000894C11CD11C00D000D000D0EDB7FEB73C
:100590003196ADB7BEB711960C93119712961C9376
:1005A000B282E382D582C4820E942F36EDB7FEB7B5
:1005B00036960FB6F894FEBF0FBEEDBF6091DD0416
:1005C0007091DE048091A2049091A304A80124EA12
:1005D00034E00E943802882399F68091DD049091DE
:1005E000DE04B801AE014F5D5F4F0E94772988237A
:1005F00069F400D088E690E0ADB7BEB712969C9340
:100600008E9311970E9402360F900F906091DD0437
:100610007091DE048091A2049091A304AE014F5F1B
:100620005F4F0E945A02CF5ADF4F0FB6F894DEBFD9
:100630000FBECDBFCF91DF911F910F91FF90EF9033
:10064000DF90CF90BF9008952F923F924F925F928C
:100650006F927F928F929F92AF92BF92CF92DF92D2
:10066000EF92FF920F931F93DF93CF93CDB7DEB737
:1006700027970FB6F894DEBF0FBECDBF0E941302BE
:10068000409A5F9A84E690E00E948C005F985E9AA0
:1006900084E690E00E948C005E985D9A84E690E08B
:1006A0000E948C005D9884E690E00E948C00459A40
:1006B00084E690E00E948C00459884E690E00E94D9
:1006C0008C00449A84E690E00E948C00449884E672
:1006D00090E00E948C00299A84E690E00E948C00B1
:1006E000299884E690E00E948C00289A84E690E0A5
:1006F0000E948C00289884E690E00E948C000E9462
:10070000B401882309F0A9C10E94B401882309F02B
:10071000A4C10E94B401882309F09FC10E94B401C2
:10072000882309F09AC188240E94F931082D10E02D
:100730000F5F1F4F000F111FEE24FF245F9A5E9A78
:100740005D9A84E690E00E948C005F985E985D98C8
:1007500084E690E00E948C000894E11CF11CE016F5
:10076000F10664F34424552447ED642E44E0742ECE
:1007700032E6232E31E0332E8EE20E940E328C7749
:100780008F838FE20E940E32082F10E000951095A3
:100790001FC14B99F6C080E30E940E32982E87FF4E
:1007A000E6C083E30E940E328093A10182E30E949F
:1007B0000E328093A00190E0B090A101AA248A2972
:1007C0009B299093A3018093A20185E30E940E329E
:1007D0008093A10184E30E940E328093A00190E0F7
:1007E000D090A101CC248C299D299093A5018093C0
:1007F000A40187E30E940E328093A10186E30E9448
:100800000E328093A00190E0F090A101EE248E2999
:100810009F299093A7018093A60100D000D000D01B
:10082000EDB7FEB73196ADB7BEB712967C926E9219
:100830001197338222828091A2019091A301958326
:1008400084830E942F36EDB7FEB736960FB6F89424
:10085000FEBF0FBEEDBF81EE94E0B3010E94A6354E
:1008600081EE94E067E671E00E94A63500D000D0EA
:1008700000D0EDB7FEB73196ADB7BEB712967C92F9
:100880006E921197338222828091A4019091A501EA
:10089000958384830E942F36EDB7FEB736960FB648
:1008A000F894FEBF0FBEEDBF81EE94E0B3010E944D
:1008B000A63581EE94E067E671E00E94A63500D08F
:1008C00000D000D0EDB7FEB73196ADB7BEB71296E7
:1008D0007C926E921197338222828091A601909130
:1008E000A701958384830E942F36EDB7FEB7369615
:1008F0000FB6F894FEBF0FBEEDBF81EE94E0B301DA
:100900000E94A63581EE94E069E671E00E94A6356A
:100910008DB79EB708970FB6F8949EBF0FBE8DBFD8
:10092000EDB7FEB731968BE691E0ADB7BEB7129644
:100930009C938E9311978091A2019091A301938330
:1009400082838091A4019091A501958384838091F5
:10095000A6019091A701978386830E94ED35ADB7DC
:10096000BEB718960FB6F894BEBF0FBEADBFBF811D
:100970009B22892D90E080239123892B11F024E67E
:10098000422E4A9902C094E6592E442019F05E9AEC
:100990004A9401C05E98552019F05D9A5A9401C09E
:1009A0005D98E1EEF4E001900020E9F73197E15E17
:1009B000F440EF5EF14060F05F9A882031F08FEDF7
:1009C00094E061EE74E00E9403021092E1045F98EB
:1009D0008091C00087FFDDCE882031F08091DF0458
:1009E0009091E0040E94BD141091C60082E390E053
:1009F0000E948C008DE267EF0E949A311AC05E98C7
:100A00005D9800D0E1E8F1E0ADB7BEB71296FC9377
:100A1000EE9311970E94ED350F900F90CE01019645
:100A20000E949A00882359F3CE0101960E94CE00BD
:100A3000182F123021F78AE090E00E9428368DE2CC
:100A400068E00E949A31882009F496CE0E948802BC
:100A50009093E0048093DF048FCE0E9488029093ED
:100A6000E0048093DF04882483945ECEFC01009729
:100A700011F480E00895108681E008954F925F920E
:100A80006F927F928F929F92BF92CF92DF92EF925E
:100A9000FF920F931F93DF93CF93CDB7DEB760978D
:100AA0000FB6F894DEBF0FBECDBF6C014B013A010B
:100AB0002901B02E009709F49CC06115710509F455
:100AC00098C083E080170CF494C007FD25C0802FE8
:100AD000992787FD9095B4E0880F991FBA95E1F7A3
:100AE00082549E4FFC01FF0FEE0BFE2F9C014E2FF8
:100AF0005E2F6E2F7E2F8E2F9E2F8E010F5F1F4F2A
:100B0000E0E1EE2EF12CF6010995882309F471C07D
:100B10008D81882309F46DC08091B001882309F08C
:100B200068C080C08D818093B0012A8530E040E0AC
:100B300050E0542F432F322F22278B8590E0A0E0E6
:100B4000B0E0DC0199278827282B392B4A2B5B2B17
:100B5000898590E0A0E0B0E0282B392B4A2B5B2B55
:100B60008C8590E0A0E0B0E0B82FAA2799278827CD
:100B7000282B392B4A2B5B2B2093B1013093B201E8
:100B80004093B3015093B4012E8530E040E050E033
:100B9000542F432F322F22278F8590E0A0E0B0E022
:100BA000DC0199278827282B392B4A2B5B2B8D8535
:100BB00090E0A0E0B0E0282B392B4A2B5B2B8889F2
:100BC00090E0A0E0B0E0B82FAA2799278827282B2B
:100BD000392B4A2B5B2B2093B5013093B601409300
:100BE000B7015093B80103C08FEF8093B0019F010C
:100BF00002C020E030E0C90160960FB6F894DEBF75
:100C00000FBECDBFCF91DF911F910F91FF90EF905D
:100C1000DF90CF90BF909F908F907F906F905F906C
:100C20004F900895E8EAF1E081E1DF011D928A9595
:100C3000E9F7D092A901C092A8019092AB018092ED
:100C4000AA017092AD016092AC015092AF01409246
:100C5000AE01B7FE67CFC8CF81E0089580E0089568
:100C6000282F8FEF8EBD0DB407FEFDCF8DB58F778A
:100C70008DBD8EB5822F80648EBD0DB407FEFDCF75
:100C80008DB58F778DBD872F9927AA27BB278EBD5E
:100C90000DB407FEFDCF8DB58F778DBDCB01AA2793
:100CA000BB278EBD0DB407FEFDCF8DB58F778DBDF3
:100CB000BB27A72F962F852F8EBD0DB407FEFDCF26
:100CC0008DB58F778DBD4EBD0DB407FEFDCF8DB5B3
:100CD0008F778DBD222319F0283069F406C085E98D
:100CE0008EBD0DB407FEFDCF0BC087E88EBD0DB4E1
:100CF00007FEFDCF05C08FEF8EBD0DB407FEFDCF03
:100D00008DB58F778DBD90E02FEF2EBD0DB407FE12
:100D1000FDCF8DB58F778DBD8EB58F3F19F49F5F59
:100D20009A3099F708958F929F92AF92BF92CF9287
:100D3000DF92EF92FF920F931F93CF93DF93EC011B
:100D4000009781F08DE1FE0111928A95E9F72A98CA
:100D50008AE040E050E060E070E00E9430068823C6
:100D600019F02A9A80E021C19FEF9EBD0DB407FEC5
:100D7000FDCF8DB58F778DBD8EB58E3FB1F71C2F12
:100D8000CE01FC0160E670E00FEF9E2F911B0EBDBF
:100D90000DB407FEFDCF8DB58F778DBD2EB5983084
:100DA00028F4933088F4992359F00CC09D3018F43E
:100DB000993070F40BC09D3019F19E3069F524C054
:100DC00028832AC0208328C0218326C02A8724C0E4
:100DD00030E040E050E0062E04C0220F331F441FD5
:100DE000551F0A94D2F78B859C85AD85BE85822BD5
:100DF000932BA42BB52B8B879C87AD87BE870CC00C
:100E00002295207F2F8708C0922F92959F708F8503
:100E1000892B8F872F70288B3196685070408FEF09
:100E2000603D780709F0B1CF89E040E050E060E034
:100E300070E00E943006882309F093CF9FEF9EBD9B
:100E40000DB407FEFDCF8DB58F778DBD8EB58E3F6E
:100E5000B1F78091C203C82EDD24E2E0CE22DD246A
:100E60009924BB24EE24FF2410E088248A94AA2429
:100E7000A3948EBC0DB407FEFDCF8DB58F778DBDCD
:100E80002EB51E3081F4822F90E026FDA98E85FDBF
:100E9000AA8E84FDAB8E8C709070959587959595F4
:100EA00087958C8F7CC0C114D10439F1173029F09B
:100EB000173050F01A3040F401C02F739E2D882750
:100EC000E22EFF24E82AF92A193009F068C00894B4
:100ED000E11CF11C970140E050E060E070E080E030
:100EE00090E003E10E94E833298B3A8B4B8B5C8BBB
:100EF0006D8B7E8B8F8B988F52C01730D9F0183046
:100F000030F4153061F0163009F049C00CC01930CA
:100F100031F11930C0F01A3009F041C025C07FE02E
:100F2000972E92223CC0822F90E083709070F82E12
:100F3000EE2435C0822F90E0E82AF92AEE0CFF1C3F
:100F4000EE0CFF1C2CC02295269526952370822F2F
:100F500090E0E82AF92A0894E11CF11C20C043E043
:100F6000B42EB222BB0C1BC0221F2227221FB22A82
:100F7000970140E050E0E92DF0E03296EB0DF11DD5
:100F800004C0220F331F441F551FEA95D2F7298B47
:100F90003A8B4B8B5C8B1D8A1E8A1F8A188E1F5FB3
:100FA000123109F066CF2A9A81E0DF91CF911F912B
:100FB0000F91FF90EF90DF90CF90BF90AF909F90F8
:100FC0008F9008952F923F924F925F926F927F92EF
:100FD0008F929F92AF92BF92CF92DF92EF92FF9249
:100FE0000F931F93DF93CF93CDB7DEB72C970FB638
:100FF000F894DEBF0FBECDBF39014A015B016C0121
:101000001A830983FC82EB8290C1BFEF4B2EB1E0C3
:101010005B2E462057209201A62DA419AA87E1E055
:101020006A1608F0E0E0872D831B21E0781608F0AF
:1010300020E0B82FBE1BBD8391E08B1708F090E035
:10104000292BE82DE21BEE8331E08E1608F030E00C
:10105000F92DF31BFF8361E09F1608F060E02A2D55
:10106000261B288771E0A21608F070E02B2C271AA7
:1010700091E0B21408F090E03C2C391A91E0C314CE
:1010800008F090E03D2D391B398780E092E084190B
:1010900095099C878B87AB81BC81A817B90710F491
:1010A000BC87AB878091B903BA858B1709F580910E
:1010B000BA03ED818E17E1F48091BB03FE818F1797
:1010C000B9F48091BC032F81821791F48091BD0304
:1010D0003885831769F48091BE03821549F48091A5
:1010E000BF03831529F48091C00399858917A9F15D
:1010F0000E94B609882309F41FC14114510429F440
:10110000AB85BC85A050B24090F42A853D814E81CC
:101110005F816885722D832D998509EB11E0E12CA3
:10112000A2E0FA2E0E94E109882309F405C1FA859C
:10113000F093B9032D812093BA033E813093BB0312
:101140008F818093BC0398859093BD032092BE034A
:101150003092BF03A985A093C003E981FA81E95BBE
:10116000F140A1F0920127543E4FC90169817A8173
:101170004B855C850E9496351092C1038B819C81C2
:10118000AB85BC858A179B0709F4D4C02A98809147
:10119000C20382FF0FC02A853D814E815F81688531
:1011A000722D832D998509E00E946933BA01A90146
:1011B0009B0105C08A859D812E813F81AC0188E11C
:1011C000B9010E943006882311F02A9AB5C0BEEFFB
:1011D000BEBD0DB407FEFDCF8DB58F778DBDE9EB9C
:1011E000F1E081918EBD0DB407FEFDCF8DB58F77F7
:1011F0008DBD23E0E93BF207A1F73FEF3EBD0DB403
:1012000007FEFDCF8DB58F778DBD8FEF8EBD0DB4F1
:1012100007FEFDCF8DB58F778DBD9FEF9EBD0DB4C1
:1012200007FEFDCF8DB58F778DBD8EB58F3FA9F7AA
:101230008EBD0DB407FEFDCF8DB58F778DBD8EB5FC
:101240002A9AA981BA81EB85FC85AE0FBF1FBA83AC
:10125000A9839F0140E050E060E070E080E090E012
:10126000462C4E0EF1E0461408F0F0E0E72DE30FB7
:10127000A1E0E71508F0A0E05F2E5E0EF1E05E163B
:1012800008F0F0E0AF2BE82DE40FB1E0E81508F02E
:10129000B0E0EA2EEE0EF1E0EE1608F0F0E0BF2B23
:1012A000E92DE50FA1E0E91508F0A0E0FB2EFE0E08
:1012B000F1E0FE1608F0F0E0AF2BEA2DE60FB1E00A
:1012C000EA1508F0B0E00A2F0E0FF1E00E1708F053
:1012D000F0E0BF2BEB2DE70FA1E0EB1508F0A0E04D
:1012E0001B2F1E0FF1E01E1708F0F0E0AF2BEC2DC6
:1012F000E80FB1E0EC1508F0B0E0AE0FF1E0AE178A
:1013000008F0F0E0BF2B8D2D890F32014701580105
:101310006D01D80E2B813C818B859C85281B390B58
:101320003C832B8391E09093C103AB81BC81AB2BB9
:1013300009F06BCE81E001C080E02C960FB6F894E6
:10134000DEBF0FBECDBFCF91DF911F910F91FF90F8
:10135000EF90DF90CF90BF90AF909F908F907F9055
:101360006F905F904F903F902F900895EF92FF9273
:101370000F931F938091C103882311F081E01CC05B
:101380002091B9033091BA034091BB035091BC0343
:101390006091BD037091BE038091BF039091C00323
:1013A00009EB11E0E12CE2E0FE2E0E94E207882327
:1013B00019F081E08093C1031F910F91FF90EF908E
:1013C00008952F923F924F925F926F927F928F92E9
:1013D0009F92AF92BF92CF92DF92EF92FF920F93C4
:1013E0001F93DF93CF93CDB7DEB729970FB6F8944D
:1013F000DEBF0FBECDBF39014A015B016C01280180
:10140000FA82E9826BC1FFEFEF2EF1E0FF2EE620BA
:10141000F7209701A62DAE19AF83E1E06A1608F018
:10142000E0E0872D831B21E0781608F020E0B82F3C
:10143000BE1BBB8391E08B1708F090E0292B382C62
:10144000321A31E0831408F030E0192D131B61E0EB
:10145000911608F060E0EA2DE61BEC8371E0AE1611
:1014600008F070E0FB2DF71BFD8391E0BF1608F03C
:1014700090E02C2C291A91E0C21408F090E02D2D58
:10148000291B2E8380E092E08E199F099987888717
:10149000A981BA81A817B90710F4B987A8878091E4
:1014A000B903BF818B1709F58091BA03EB818E17C1
:1014B000E1F48091BB038315C1F48091BC038117D3
:1014C000A1F48091BD03FC818F1779F48091BE0354
:1014D0002D81821751F48091BF03821531F48091E0
:1014E000C0033E81831709F483C00E94B609882394
:1014F00009F4FAC02A988091C20382FF0FC02F819D
:101500003B81432D512F6C817D81822D9E8109E08D
:101510000E946933BA01A9019B0105C08F819B819B
:10152000232D312FAC0181E1B9010E9430068823BF
:1015300019F02A9A80E0D8C08FEF8EBD0DB407FE57
:10154000FDCF8DB58F778DBD8EB58E3FA9F7E9EBB9
:10155000F1E09FEF9EBD0DB407FEFDCF8DB58F77F7
:101560008DBD8EB58083A3E0E83BFA0711F031967C
:10157000F0CFBF81B093B903EB81E093BA0330920F
:10158000BB031093BC03FC81F093BD032D8120931A
:10159000BE032092BF033E813093C00397012754BE
:1015A0003E4FC201B901488559850E9496358FEF9B
:1015B0008EBD0DB407FEFDCF8DB58F778DBD8EB579
:1015C0009FEF9EBD0DB407FEFDCF8DB58F778DBD0E
:1015D0008EB52A9AAFEFAEBD0DB407FEFDCFE885FC
:1015E000F9854E0E5F1E8DB58F778DBD8EB50DC002
:1015F000970127543E4FC201B901488559850E9481
:10160000963528853985420E531E89819A81A88591
:10161000B9858A1B9B0B9A838983AD0160E070E0DA
:1016200080E090E0A0E0B0E0262C240E31E026140B
:1016300008F030E0272D250FE1E0271508F0E0E065
:10164000332E320E31E0321608F030E0E32B282D35
:10165000260FF1E0281508F0F0E0EE2EE20E31E062
:10166000E21608F030E0F32B292D270FE1E02915D1
:1016700008F0E0E0FF2EF20E31E0F21608F030E064
:10168000E32B2A2D280FF1E02A1508F0F0E00E2FA9
:10169000020F31E0021708F030E0F32B2B2D290F59
:1016A000E1E02B1508F0E0E01F2F120F31E01217D8
:1016B00008F030E0E32B2C2D2A0FF1E02C1508F078
:1016C000F0E0E20F31E0E21708F030E0F32B8D2D6F
:1016D0008B0F3101470158016F01D80EE981FA8162
:1016E000EF2B09F090CE81E029960FB6F894DEBF7B
:1016F0000FBECDBFCF91DF911F910F91FF90EF9063
:10170000DF90CF90BF90AF909F908F907F906F9021
:101710005F904F903F902F9008952F923F924F925D
:101720005F926F927F928F929F92AF92BF92CF9271
:10173000DF92EF92FF920F931F93DF93CF93CDB77A
:10174000DEB760970FB6F894DEBF0FBECDBF522E46
:10175000432E4B835C836D837E838F839887180130
:1017600037019A8289820115110509F488C0E114B4
:10177000F10409F484C0CE14DF0408F480C0A1147D
:10178000B10409F47CC0882499248E189F08CE18CF
:10179000DF08970140E050E060E070E080E090E01A
:1017A000E9863A874B875C876D877E878F87988B22
:1017B000252D342D4B815C816D817E818F819885B3
:1017C000810173010E94E109882309F458C0C10115
:1017D000052D142D2B813C814D815E816F81788593
:1017E000E980FA80F5010995882309F44AC0C80CFC
:1017F000D91CC601860D971D8615970508F441C0B2
:101800003985350D91E0351508F090E08A85840D15
:1018100021E0841508F020E0192F180F91E0181727
:1018200008F090E0922B4B81940F81E0941708F020
:1018300080E06C81680F81E05C81651708F080E0D2
:101840005D81580F81E07D81571708F080E04E815F
:10185000480F81E02E81421708F080E07F81870FDA
:1018600021E0871708F020E0532E412E9B836C83E4
:101870005D834E838F838885820F888799CF80E030
:1018800001C081E060960FB6F894DEBF0FBECDBFF9
:10189000CF91DF911F910F91FF90EF90DF90CF904C
:1018A000BF90AF909F908F907F906F905F904F9080
:1018B0003F902F9008958F929F92BF92CF92DF9288
:1018C000EF92FF920F931F93CF93DF93239A259A62
:1018D000229A24982C9A2A9A83E58CBD8DB58E7F06
:1018E0008DBD1092C20390E02FEF2EBD0DB407FE08
:1018F000FDCF8DB58F778DBD8EB59F5F9A30A9F7DF
:101900002A9800E010E080E040E050E060E070E005
:101910000E943006F82E81E0F81641F081E00F3F7A
:10192000180709F4C3C00F5F1F4FEDCF88E04AEAE4
:1019300051E060E070E00E94300682FD2DC08FEF24
:101940008EBD0DB407FEFDCF8DB58F778DBD8EB5E5
:101950008FEF8EBD0DB407FEFDCF8DB58F778DBD9A
:101960008EB58FEF8EBD0DB407FEFDCF8DB58F7791
:101970008DBD0EB400FECAC08FEF8EBD0DB407FE44
:10198000FDCF8DB58F778DBD8EB58A3A09F0BEC07B
:1019900082E08093C20312C087E340E050E060E041
:1019A00070E00E94300689E240E050E060E070E0C4
:1019B0000E94300682FD02C0F092C203B090C203C2
:1019C0008B2D90E003E0802E912C8822992212E04A
:1019D000C12ED12CC822D922C0E0D0E081149104BC
:1019E000B9F0C114D10431F0E12CF12C012DB0E497
:1019F0001B2F03C0EE24FF24870187E340E050E063
:101A000060E070E00E94300689E2B801A70105C0DD
:101A100081E040E050E060E070E00E94300680FF2E
:101A200007C08FE7CF3FD80709F440C02196D6CF33
:101A3000CD2899F18AE340E050E060E070E00E9438
:101A40003006882399F58FEF8EBD0DB407FEFDCFCC
:101A50008DB58F778DBD0EB406FE04C084E0B82A24
:101A6000B092C2038FEF8EBD0DB407FEFDCF8DB5D2
:101A70008F778DBD8EB58FEF8EBD0DB407FEFDCF78
:101A80008DB58F778DBD8EB58FEF8EBD0DB407FEF2
:101A9000FDCF8DB58F778DBD8EB580E140E052E0F2
:101AA00060E070E00E943006882311F02A9A2EC070
:101AB0002A9A8CB58C7F8CBD8DB581608DBD8FEFE2
:101AC0008093B9038093BA038093BB038093BC03D4
:101AD0008093BD038093BE038093BF038093C003B4
:101AE00081E08093C10320E030E040E050E060E01E
:101AF00070E080E090E009EB11E0E12CA2E0FA2E2A
:101B00000E94E109882319F081E001C080E0DF91A3
:101B1000CF911F910F91FF90EF90DF90CF90BF90EA
:101B20009F908F9008952F923F924F925F926F9265
:101B30007F928F929F92AF92BF92CF92DF92EF925D
:101B4000FF920F931F93DF93CF93CDB7DEB7289704
:101B50000FB6F894DEBF0FBECDBF922E832E542E4B
:101B6000452E362E272E8D839E833801F886EF82F0
:101B7000DA82C982BC82AB820115110509F47EC0EC
:101B8000CD2809F47BC0BB24EF2809F06EC0BB242C
:101B9000B3946BC0C301092D182D252D342D432D71
:101BA000522D6D817E81EB80FC80A981BA81FD017F
:101BB00009956C01009709F463C0BB2031F4EF81F3
:101BC000F885E817F90708F459C0292D382D452D57
:101BD000542D632D722D8D819E81830176010E948B
:101BE000E207882309F44AC09601F92DFC0DE1E0D3
:101BF000F91508F0E0E0882D830F21E0881508F042
:101C000020E01E2F180F91E0181708F090E0922B9B
:101C1000950D81E0951508F080E0682F640D81E056
:101C2000641508F080E0582F530D81E0531508F03B
:101C300080E0482F420D81E0421508F080E02D81C0
:101C4000820F21E03D81831708F020E09F2E812E36
:101C5000592E462E1A018D838E81820F8E83AF817D
:101C6000B885AC19BD09B887AF83BB2009F092CF06
:101C7000EF81F885EF2B09F08DCF02C080E001C025
:101C800081E028960FB6F894DEBF0FBECDBFCF918E
:101C9000DF911F910F91FF90EF90DF90CF90BF9059
:101CA000AF909F908F907F906F905F904F903F90FC
:101CB0002F900895FC01009711F011821082089571
:101CC0007F928F929F92AF92BF92CF92DF92EF92CC
:101CD000FF920F931F93DF93CF9300D000D000D0DB
:101CE000CDB7DEB7DC01009709F441C142305105A0
:101CF0006105710508F43BC1ED91FC911197808558
:101D00001A962C911A971B961C911B971C96CC9097
:101D10001C971D96BC901D971E96FC901E971F96B3
:101D2000EC901F975096DC90509751967C908B309A
:101D300009F090C0B2E0440F551F661F771FBA9597
:101D4000D1F780E090E0A0E0B0E0822E840E31E098
:101D5000841608F030E0150F21E0151708F020E098
:101D6000932E910E01E0911608F000E0202B1C2D1F
:101D7000160F31E0161708F030E0A22EA10E01E098
:101D8000A11608F000E0302B1B2D170F01E01717EC
:101D900008F000E0B32EB10E21E0B11608F020E00B
:101DA000022B11E0F81608F010E0C02ECF0C01E075
:101DB000CF1408F000E0102B01E0E91608F000E075
:101DC000F12EFE0C11E0FE1408F010E0012B11E0E2
:101DD000DA1608F010E0802F8D0DA1E08D1508F0C7
:101DE000A0E01A2B0190F081E02D9401A5016C2D4B
:101DF0007F2D912F970D8E010D5F1F4FA4E0EA2ECE
:101E0000F12C0995882309F4B2C02B813C814D81C6
:101E10005E81211531054105510509F4ACC0273F0C
:101E20008FEF38078FEF48078FE0580709F49FC0FE
:101E3000DA01C901805F9F4FAF4FBF400797A105EF
:101E4000B10508F494C0DA01C901885F9F4FAF4F14
:101E5000BF4089C0440F551F661F771F80E090E088
:101E6000A0E0B0E0822E840E31E0841608F030E06D
:101E7000150F21E0151708F020E0932E910E01E0D8
:101E8000911608F000E0202B1C2D160F31E01617DC
:101E900008F030E0A22EA10E01E0A11608F000E04B
:101EA000302B1B2D170F01E0171708F000E0B32EA1
:101EB000B10E21E0B11608F020E0022B11E0F81677
:101EC00008F010E0C02ECF0C01E0CF1408F000E0C5
:101ED000102B01E0E91608F000E0F12EFE0C11E0F5
:101EE000FE1408F010E0012B11E0DA1608F010E003
:101EF000802F8D0DA1E08D1508F0A0E01A2B019028
:101F0000F081E02D9401A5016C2D7F2D912F970D6F
:101F10008E010F5F1F4FA2E0EA2EF12C0995882356
:101F200031F189819A819C0140E050E02115310511
:101F30004105510501F1273F8FEF380780E0480741
:101F400080E05807A1F0DA01C901805F9F4FA040EF
:101F5000B0400797A105B10550F0DA01C901885FCB
:101F60009F4FA040B0400897A105B10520F420E0A4
:101F700030E040E050E0B901CA0126960FB6F8946F
:101F8000DEBF0FBECDBFCF91DF911F910F91FF90AC
:101F9000EF90DF90CF90BF90AF909F908F907F9009
:101FA00008952F923F924F925F926F927F928F92FD
:101FB0009F92AF92BF92CF92DF92EF92FF920F93D8
:101FC0001F93DF93CF93CDB7DEB760970FB6F8942A
:101FD000DEBF0FBECDBF4C01009709F482C1423075
:101FE00051056105710508F47CC1DC011A96BC91AC
:101FF000B887FC01F385F987DC011C96BC91BA8790
:10200000FC01F585FB87DC011E96BC91BC87FC01B9
:10201000F785FD87DC015096BC91BE87FC01F189F4
:10202000FF87DC01ED91FC9180858B3009F0BAC00F
:1020300012E0440F551F661F771F1A95D1F780E0F5
:1020400090E0A0E0B0E0E885E40FE88B31E0E41731
:1020500008F030E02985250FE1E0251708F0E0E0E1
:10206000320F3F8331E0FF81F21708F030E0E32BBD
:102070002A85260FF1E0261708F0F0E02E2E220E1A
:1020800031E0221608F030E0F32B2B85270F31E0EA
:10209000271708F030E03F2E320EE1E0321608F04C
:1020A000E0E03E2B21E0EC85E81708F020E04C84CE
:1020B000430E31E0FC854F1608F030E0232B31E071
:1020C000ED85E91708F030E05D84520E21E0FD85D2
:1020D0005F1608F020E0322B21E0EE85EA1708F0C9
:1020E00020E06E84630E91E0FE856F1608F090E0AC
:1020F000722E792A2F85720ED401ED91FC910190F8
:10210000F081E02D28893F81A101B201C3018E0138
:102110000D5F1F4FB4E0EB2EF12C0995882309F4D5
:10212000E0C0AB80BC80CD80DE80A114B104C104CE
:10213000D10409F4D8C0D601C501805F9F4FAF4FCD
:10214000BF400897A105B10508F4CBC0D601C50171
:10215000885F9F4FAF4FBF400897A105B10518F4A6
:10216000AA24BB2465011B821C821D821E82D4010D
:10217000ED91FC910480F581E02D28893F81A1013A
:10218000B201C3018E010D5F1F4FA4E0EA2EF12CB6
:102190000995B601A501A114B104C104D10409F047
:1021A00047CFA1C0440F551F661F771F80E090E006
:1021B000A0E0B0E02884240E31E0241608F030E0DE
:1021C0002985250FE1E0251708F0E0E0332E320ED7
:1021D00031E0321608F030E0E32B2A85260FF1E0DB
:1021E000261708F0F0E04E2E420E31E0421608F0BD
:1021F00030E0F32B2B85270F31E0271708F030E074
:102200005F2E520EE1E0521608F0E0E03E2B21E096
:10221000EC85E81708F020E06C84630E31E0FC8563
:102220006F1608F030E0232B31E0ED85E91708F058
:1022300030E07D84720E21E0FD857F1608F020E0FD
:10224000322B21E0EE85EA1708F020E0AE84A30EE1
:1022500091E0FE85AF1608F090E0B22EB92A2F85E6
:10226000B20ED401ED91FC910190F081E02D91012D
:10227000A201B301C5018E010F5F1F4FB2E0EB2E2B
:10228000F12C0995882369F1C980DA80C114D10441
:1022900051F1C6014096089720F1B8EFCB16BFEF79
:1022A000DB0610F0CC24DD241A821982D401ED91D2
:1022B000FC910480F581E02D9101A201B301C501DB
:1022C0008E010F5F1F4FA2E0EA2EF12C0995A601A7
:1022D00060E070E0411551056105710509F062CFBC
:1022E00002C080E001C081E060960FB6F894DEBFC6
:1022F0000FBECDBFCF91DF911F910F91FF90EF9057
:10230000DF90CF90BF90AF909F908F907F906F9015
:102310005F904F903F902F9008952F923F924F9251
:102320005F926F927F928F929F92AF92BF92CF9265
:10233000DF92EF92FF920F931F93DF93CF93CDB76E
:10234000DEB7AD970FB6F894DEBF0FBECDBF9D8F41
:102350008C8F3A014B01B901009709F4EDC2DC0101
:10236000ED91FC911197E080F180FB8EEA8E248143
:102370003581398F288F1A963C911A973CA31B966A
:102380004C911B974DA31C965C911C975EA31D96C8
:102390008C911D978FA31E969C911E9798A71F96B0
:1023A000AC91A9A7AC8DBD8D5096BC91BAA7AC8D50
:1023B000BD8D5196BC91BBA71F8680858B3011F4D3
:1023C000E1E0EF87EC8DFD8D82899389A489B58941
:1023D000FF85FF2351F09C01AD0182E056954795A2
:1023E000379527958A95D1F706C09C01AD01569582
:1023F000479537952795288B398B4A8B5B8BC8017E
:10240000DB018C8B9D8BAE8BBF8BAA24BB2465011B
:1024100082E090E0A0E0B0E08B879C87AD87BE872C
:10242000A4E0EA2EF12C012D112DEF82F886098708
:102430001A8778C1FF84FF2009F47BC08F819885BB
:10244000A985BA85880F991FAA1FBB1F9C01AD01E2
:1024500060E070E080E090E00CA1020F0CA7F1E0DA
:10246000021708F0F0E0EDA1E30FA1E0E31708F098
:10247000A0E0FE0FFE8FF1E01E8D1E1708F0F0E0C9
:10248000AF2BEEA1E40FB1E0E41708F0B0E0AE0F1F
:10249000AF8FF1E0AE1708F0F0E0BF2BEFA1E50F32
:1024A000F1E0E51708F0F0E0BE0FB8A3A1E0BE1719
:1024B00008F0A0E0FA2BE1E0A8A5A61708F0E0E0FC
:1024C00028A42F0EF1E0B8A52B1608F0F0E0EF2BB2
:1024D000F1E0E9A4E71608F0F0E039A43E0EE1E0EF
:1024E000F9A43F1408F0E0E0FE2BE1E00AA508178C
:1024F00008F0E0E04AA44F0E91E01AA5411608F05A
:1025000090E05E2E592A2BA5520E2CA53E8D4F8DA4
:1025100058A1B101C2018E010D5F1F4FE4E0EE2E04
:10252000F12CAA8DBB8DFD010995882309F07EC091
:1025300003C2EF80F88409851A85A801970160E03D
:1025400070E080E090E0FCA0F20EFDA6F1E0F21653
:1025500008F0F0E0EDA1E30FA1E0E31708F0A0E040
:10256000FE0FF9A3F1E009A10E1708F0F0E0AF2B80
:10257000EEA1E40FB1E0E41708F0B0E0AE0FAAA3BB
:10258000F1E0AE1708F0F0E0BF2BEFA1E50FA1E0FE
:10259000E51708F0A0E0BE0FBBA3F1E0BE1708F0FE
:1025A000F0E0AF2BE8A5E60FB1E0E61708F0B0E0E9
:1025B0002A2E2E0EF1E02E1608F0F0E0BF2BE9A532
:1025C000E70FA1E0E71708F0A0E03B2E3E0EF1E098
:1025D0003E1608F0F0E0AF2BEAA5E80FB1E0E817EF
:1025E00008F0B0E04A2E4E0EF1E04E1608F0F0E092
:1025F0005B2E5F2A8BA5890F580E2DA539A14AA104
:102600005BA1B101C2018E010F5F1F4FB2E0EB2E43
:10261000F12CAA8DBB8DFD010995882309F48CC18D
:1026200089819A81892B09F066C02CC08B819C819D
:10263000AD81BE810097A105B10509F05CC0A11470
:10264000B104C104D10469F4AFEFEA2EAFEFFA2E62
:10265000AFEF0A2FAFE01A2FEB82FC820D831E83AF
:1026600004C0AB82BC82CD82DE822CA53E8D4F8D14
:1026700058A1B101C2018E010D5F1F4FF4E0EF2E92
:10268000F12C18C0A114B104C104D10429F4EFEF56
:10269000FFEFFA83E98302C0BA82A9822DA539A18E
:1026A0004AA15BA1B101C2018E010F5F1F4FE2E0A1
:1026B000EE2EF12CA88DB98DFD010995882309F422
:1026C0003FC00C891D892E893F8901501040204050
:1026D00030400C8B1D8B2E8B3F8B01151105210576
:1026E000310529F4AB84BC84CD84DE8432C0AB8454
:1026F000BC84CD84DE842B853C854D855E852F5F33
:102700003F4F4F4F5F4F2B873C874D875E878F81B1
:102710009885A985BA850296A11DB11D8F839887DA
:10272000A987BA87EB84FC840D851E8528893989A1
:102730004A895B89E216F3060407150708F47ACE86
:102740008C899D89AE89BF890097A105B10509F0E3
:10275000EDC092E0691671048104910408F4EFC0A1
:10276000AF85AA2309F471C0AB82BC82CD82DE8220
:10277000B2E0660C771C881C991CBA95D1F7B4019D
:10278000A30180E090E0A0E0B0E02CA1260D31E0B4
:10279000261508F030E0EDA1E50F11E0E51708F08F
:1027A00010E03E0FF1E03E1708F0F0E01F2BEEA125
:1027B000E60F01E0E61708F000E0912E9E0EF1E032
:1027C0009E1608F0F0E00F2BEFA1E70FF1E0E717FE
:1027D00008F0F0E0E02EEE0E11E0EE1608F010E04A
:1027E000F12BE1E0F8A4F81608F0E0E0F8A4FF0E01
:1027F000F1E008A5F01608F0F0E0EF2BF1E019A5E4
:10280000191708F0F0E009A50E0FE1E019A501176E
:1028100008F0E0E0FE2B11E0EAA5EA1708F010E06E
:102820008AA58F0FE1E0FAA58F1708F0E0E01E2BD4
:10283000492D5E2D6F2D702F9BA5910F8E010D5F81
:102840001F4FA4E0EA2EF12C6BC0BA82A982660C5D
:10285000771C881C991CB401A30180E090E0A0E0E3
:10286000B0E02CA1260D31E0261508F030E0EDA1F6
:10287000E50F11E0E51708F010E03E0FF1E03E171C
:1028800008F0F0E01F2BEEA1E60F01E0E61708F0DC
:1028900000E0912E9E0EF1E09E1608F0F0E00F2B66
:1028A000EFA1E70FF1E0E71708F0F0E0E02EEE0E01
:1028B00011E0EE1608F010E0F12BE1E0F8A4F816B4
:1028C00008F0E0E0F8A4FF0EF1E008A5F01608F02B
:1028D000F0E0EF2BF1E019A5191708F0F0E009A5D9
:1028E0000E0FE1E019A5011708F0E0E0FE2B11E062
:1028F000EAA5EA1708F010E08AA58F0FE1E0FAA533
:102900008F1708F0E0E01E2B492D5E2D6F2D702FE4
:102910009BA5910F8E010F5F1F4FE2E0EE2EF12C71
:10292000A88DB98DFD010995882349F48C8D9D8D65
:10293000B601A5010E94D10FAA24BB246501B501EF
:10294000C601AD960FB6F894DEBF0FBECDBFCF91D6
:10295000DF911F910F91FF90EF90DF90CF90BF908C
:10296000AF909F908F907F906F905F904F903F902F
:102970002F90089580E190E00895FC01009711F0F8
:102980001182108208952F923F924F925F926F9220
:102990007F928F929F92AF92BF92CF92DF92EF92EF
:1029A000FF920F931F93DF93CF93CDB7DEB7689756
:1029B0000FB6F894DEBF0FBECDBF988F8F8B7E878A
:1029C0006D87588B4F87009709F41EC3672B09F456
:1029D0001BC34115510509F417C3DC01D396AC9014
:1029E000D397D496BC90D497D596CC90D597D696BD
:1029F000DC90D697D796EC90D797D896FC90D8973E
:102A0000D9960C91D997DA961C91DA9797962D90D2
:102A10003D904D905C909A979A0140E050E060E0C4
:102A200070E080E090E0B22FBA0DBA8BF1E0B217FF
:102A300008F0F0E0E32FEB0D99249394E31708F0EE
:102A40009924FE0FF98BF1E0A989AE1708F0F0E0A8
:102A50009F2AE42FEC0DB1E0E41708F0B0E0692CF8
:102A60006E0EF1E06E1608F0F0E0BF2BE52FED0DD5
:102A7000A1E0E51708F0A0E07B2E7E0EF1E07E16C7
:102A800008F0F0E0AF2BE62FEE0DB1E0E61708F00E
:102A9000B0E08A2E8E0EF1E08E1608F0F0E0BF2B2B
:102AA000E72FEF0DA1E0E71708F0A0E09B2E9E0EA8
:102AB000F1E09E1608F0F0E0AF2BE82FE00FB1E058
:102AC000E81708F0B0E0AE0FF1E0AE1708F0F0E064
:102AD000EB2FEF2B892F810FE80FA201910160E00E
:102AE00070E080E090E09E17F0F0E91721F58A177A
:102AF000D0F0A81701F57915B0F09716E1F4681534
:102B000090F08616C1F4571570F07516A1F44615AD
:102B100050F0641681F4B9893B1728F0B31759F4C3
:102B2000EA892E1640F491012A193B09388B2F8728
:102B3000232B09F46CC2AF89B88DED91FC911197EC
:102B4000208D318D3C872B87DB968D919D910D904B
:102B5000BC91A02D8F839887A987BA870097A1057C
:102B6000B10509F059C0AF89B88D93962D913D916B
:102B70004D915C9196972F83388749875A87211505
:102B800031054105510559F48A2D8B298C298D2950
:102B90008E298F29802B812B09F439C235C28A2DC9
:102BA0008B298C298D298E298F29802B812BA1F1AE
:102BB00035014601EB85FC851F014424552422275D
:102BC0003327A90122193309440955092B8B3C8B62
:102BD0004D8B5E8B1CC0AF89B88D8D919C914F81C0
:102BE000588569857A850E94600E6F83788789870A
:102BF0009A87611571058105910509F405C22B8934
:102C00003C894D895E89620E731E841E951E621476
:102C1000730484049504F8F64B855C85415050405C
:102C20005C874B874A215B215C834B838B859C852A
:102C300001969C878B87AF85B889BE83AD83EF896A
:102C4000F88D0190F081E02DFA83E983309709F443
:102C50008EC02F81388549855A852230310541053E
:102C6000510508F484C02250304040405040590182
:102C70006A012E5F3F4F4F4F5F4F2F833887498741
:102C80005A87208C318C9501A60160E070E080E0CD
:102C900090E05101CC24DD24EE24FF2400E010E07C
:102CA0000E946E32E981FA81A28DF38CB48D058D7C
:102CB000E68CD78CC0A011A1A20FF1E0A21708F0FA
:102CC000F0E0232F2F0DE1E0231708F0E0E0FF2EC6
:102CD000F20E31E0F21608F030E0E32B242F2B0F38
:102CE000F1E0241708F0F0E0BE2FB20F31E0B21788
:102CF00008F030E0F32B252F200F41E0251708F0D6
:102D000040E0F20F31E0F21708F030E0432B262FBD
:102D10002E0D51E0261708F050E0E42FE20F31E0CD
:102D2000E21708F030E0532B272F2D0D41E0271735
:102D300008F040E0520F31E0521708F030E0432B2A
:102D4000282F2C0D31E0281708F030E0420F81E0E9
:102D5000421708F080E0732E782A190F2A2F9F2D32
:102D60006B2F7F2FAE2FB52F342E710E08C020E0B1
:102D700090E060E070E0A0E0B0E0332477248B8442
:102D80009C844B815C81841A950AED81FE81E81553
:102D9000F90508F44F01E981FA81408051804B81A7
:102DA0005C815A01CC24DD24EE24FF248701622EAD
:102DB000640E31E0621608F030E0892F8B0D41E09F
:102DC000891708F040E0380F91E0381708F090E0DC
:102DD000492B862F8C0D51E0861708F050E0480FE4
:102DE00091E0481708F090E0592B872F8D0D61E096
:102DF000871708F060E0580F91E0581708F090E04E
:102E0000692B8A2F8E0D71E08A1708F070E0680F29
:102E100091E0681708F090E0792B9B2F9F0D81E0DF
:102E20009B1708F080E0790FA1E0791708F0A0E087
:102E30008A2BA32DA00F91E0A31508F090E08A0F34
:102E4000B1E08A1708F0B0E09B2B710ED201ED9132
:102E5000FC91262D970D0D851E85740109958823FB
:102E600009F4AFC02D813E81281939093E832D8395
:102E7000940140E050E060E070E080E090E0AF89D5
:102E8000B88DD3961C91D397D496DC90D497D596D1
:102E9000BC91EF89F88D06A9E7A8A0AC71ACF2ACA3
:102EA000180DF1E0181508F0F0E0ED2DE30FA1E0AA
:102EB000E31708F0A0E0BF2EBE0EF1E0BE1608F04A
:102EC000F0E0AF2BE42FEB0FB1E0E41708F0B0E037
:102ED000CA2ECE0EF1E0CE1608F0F0E0BF2BE52FA3
:102EE000E00FA1E0E51708F0A0E0DB2EDE0EF1E038
:102EF000DE1608F0F0E0AF2BE62FEE0DB1E0E6179E
:102F000008F0B0E0EA2EEE0EF1E0EE1608F0F0E088
:102F1000BF2BE72FEA0DA1E0E71708F0A0E00B2F89
:102F20000E0FF1E00E1708F0F0E0AF2BE82FE70DE1
:102F3000F1E0E81708F0F0E0AA2EAE0EA1E0AE1620
:102F400008F0A0E0FA2BF90EFF0DAF89B88DD396EB
:102F50001C93D397D496BC92D497D596CC92D59700
:102F6000D696DC92D697D796EC92D797D8960C93B4
:102F7000D897D996AC92D997DA96FC93DA978B8149
:102F80009C81880D991DEB85FC858E179F0710F19C
:102F90008D919C914F81588569857A850E94600E3C
:102FA0006F83788789879A876115710581059105F7
:102FB00079F4AF89B88DDB961D921D921D921C92FB
:102FC000DE974F855889ED81FE814E1B5F0B21C036
:102FD0001C821B822F81388549855A85AF89B88D1F
:102FE000DB962D933D934D935C93DE97ED81FE81AF
:102FF000EF2B39F02D853E85280D391D3E872D8715
:103000001ECE4F85588905C04FEF5FEF02C040E0EC
:1030100050E0CA0168960FB6F894DEBF0FBECDBF70
:10302000CF91DF911F910F91FF90EF90DF90CF90A4
:10303000BF90AF909F908F907F906F905F904F90D8
:103040003F902F900895FC01009711F0118210829B
:103050000895FC01009711F480E0089583A194A1E4
:10306000A5A1B6A183AB94ABA5ABB6AB10AE17AA26
:1030700081E00895CF92DF92EF92FF920F931F931A
:10308000CF93DF936C01FB01B701D701CD91DC91A8
:10309000119712968D919C911397809613969C93FD
:1030A0008E931297D6018C91853E09F4C3C0882374
:1030B00009F4C0C089A59AA5892B9BA5892B9CA53D
:1030C000892B9DA5892B9EA5892B9FA5892B98A926
:1030D000892B41F409A71AA72BA73CA74DA75EA7E8
:1030E000EFA7F8AB209709F4A7C0C114D10409F4E5
:1030F000A3C0F6019081992309F49EC083858F3087
:1031000029F5892F90E08F7390702DE030E0829F39
:10311000A001839F500D929F500D11244D5050409F
:10312000A2E9B1E0C40FD51F0DC08D91F601E80FE3
:10313000F11D808189934F5F5F4FF1E0AF39BF0789
:1031400009F478C04F31510580F374C08881882319
:1031500009F04DC0A601DE01860120E0F801908152
:10316000903299F09C93F601848583FF08C0F801A2
:103170008081813420F08B3510F4905E9C932F5F1A
:103180000F5F1F4F1196283049F78881853011F461
:1031900085EE8883D60118968C91803221F1FE014C
:1031A000E20FF11D8EE28083322F3F5F2C5FFA0128
:1031B00090859032B9F0FE01E30FF11D9083D601A6
:1031C0001C968C9184FF09C0DA0118968C91813489
:1031D00020F08B3510F4905E90833F5F4F5F5F4F20
:1031E000321729F7232FFE01E20FF11D1082F6019D
:1031F000838588A3228D338D40E050E084899589B2
:10320000A0E0B0E0DC0199278827822B932BA42B28
:10321000B52B89A39AA3ABA3BCA3848D958DA68D52
:10322000B78D8DA39EA3AFA3B8A781E0DB01149651
:103230008C9302C081E001C080E0DF91CF911F91AB
:103240000F91FF90EF90DF90CF9008952F923F92D3
:103250004F925F926F927F928F929F92AF92BF92A6
:10326000CF92DF92EF92FF920F931F93DF93CF9352
:10327000CDB7DEB72C970FB6F894DEBF0FBECDBF2B
:103280003C016B01009709F49CC06115710509F4BC
:1032900098C0DB019996BC9099979A96AC909A97B2
:1032A0009B969C909B979C968C909C979D965C90EF
:1032B0009D979E964C909E979F963C909F97D096F8
:1032C0002C908B2D8A29892988298529842983296D
:1032D000822909F476C0D301ED91FC910190F0812F
:1032E000E02D2B2D3A2D492D582D652D742D832D34
:1032F000922D8E010F5F1F4FACE0EA2EF12C099545
:10330000882309F45EC0B5EEB983D301ED91FC9139
:103310000480F581E02D2B2D3A2D492D582D652D5A
:10332000742D832D922D8E010F5F1F4F09958823D9
:1033300009F447C08C858F3079F57B2D705E81E074
:103340007B1508F080E0682F6A0D81E06A1508F0AF
:1033500080E0582F590D81E0591508F080E0482F82
:10336000480D81E0481508F080E0382F350D81E0E8
:10337000351508F080E0282F240D81E0241508F091
:1033800080E0830D91E0831508F090E05B014A0135
:103390002901382E290E9FCFF60141A152A163A128
:1033A00074A1411551056105710539F0C3010E94F1
:1033B000D10F20E030E0882311F021E030E0822FAF
:1033C00001C080E02C960FB6F894DEBF0FBECDBFD3
:1033D000CF91DF911F910F91FF90EF90DF90CF90F1
:1033E000BF90AF909F908F907F906F905F904F9025
:1033F0003F902F9008952F923F924F925F926F923D
:103400007F928F929F92AF92BF92CF92DF92EF9274
:10341000FF920F931F93DC01009749F420E030E006
:1034200040E050E060E070E080E090E030C0ED917E
:10343000FC911197808552962D913D914D915C9113
:1034400055975896ED91FC9159978B3041F412E0C5
:1034500056954795379527951A95D1F704C05695F7
:1034600047953795279522503040404050405901AC
:103470006A01A60160E070E080E090E05F01CC248A
:10348000DD24EE24FF2400E010E00E946E321F9144
:103490000F91FF90EF90DF90CF90BF90AF909F90F3
:1034A0008F907F906F905F904F903F902F900895F6
:1034B0002F923F924F925F926F927F928F929F9244
:1034C000AF92BF92CF92DF92EF92FF920F931F9332
:1034D000DF93CF93CDB7DEB7E0970FB6F894DEBF9A
:1034E0000FBECDBF3C01009709F4F8C019821A82C3
:1034F0001B821C8280E290E09E838D83D3011A960A
:10350000BC91B9A7F301F385FAA7D3011C96BC912E
:10351000BBA7F301F585FCA7D3011E96BC91BDA7FF
:10352000F301F785FEA7D3015096BC91BFA7F30125
:10353000F189F8ABD30152962D903D904D905C905F
:103540005597ADC0BEEF2B16BFEF3B06B0E04B0664
:10355000B0E05B0628F0EEEFFFEFF8A7EFA302C0A4
:1035600038A62FA2D301ED91FC91A281B381808571
:10357000863019F0E5EBFBE102C0EFE8FBE129A59D
:103580003AA54BA55CA56DA57EA58FA598A98E0132
:10359000095F1F4FEE24FF246894E5F8CFA0D8A45C
:1035A0005F014E010894811C911CFD01099588233F
:1035B00009F494C0CFA0D8A45601CC24DD24EE2475
:1035C000FF248701F9A5FA0D91E0B9A5FB1708F0D2
:1035D00090E08AA58B0D21E0EAA58E1708F020E087
:1035E000392F380F91E0381708F090E0292B8BA580
:1035F0008C0D51E09BA5891708F050E0422F480F31
:1036000091E0481708F090E0592B8CA58D0D21E032
:10361000ACA58A1708F020E0580F91E0581708F081
:1036200090E0292B8DA58E0D71E0BDA58B1708F0BC
:1036300070E0622F680F91E0681708F090E0792B36
:103640008EA58F0D21E0EEA58E1708F020E0780FF3
:1036500091E0781708F090E0292B9FA5900FE1E00A
:103660008FA5981708F0E0E0822F890F21E08917D5
:1036700008F020E0E22B98A9910FF9A73AA74BA7F1
:103680005CA76DA77EA78FA79E0F98ABEFA1F8A5AB
:10369000CF01A0E0B0E0281A390A4A0A5B0A2114D7
:1036A00031044104510409F04DCFD30158964D9196
:1036B0005C91599729803A804B805C809A0140E068
:1036C00050E060E070E080E090E051016201EE24A3
:1036D000FF2400E010E00E946E3208C020E030E0DD
:1036E00040E050E060E070E080E090E0E0960FB6EF
:1036F000F894DEBF0FBECDBFCF91DF911F910F9128
:10370000FF90EF90DF90CF90BF90AF909F908F9001
:103710007F906F905F904F903F902F900895EF9221
:10372000FF92CF93DF93EC01F7014481558120E0B4
:1037300030E012C088819981892B59F48081918170
:10374000A281B3810196A11DB11D80839183A283C3
:10375000B3832E5F3F4F22962417350758F381E03D
:10376000DF91CF91FF90EF900895EF92FF92CF936A
:10377000DF93EC01F7014481558120E030E016C071
:1037800088819981AA81BB810097A105B10559F46F
:1037900080819181A281B3810196A11DB11D808399
:1037A0009183A283B3832C5F3F4F24962417350760
:1037B00038F381E0DF91CF91FF90EF9008952F9241
:1037C0003F924F925F926F927F928F929F92AF92B1
:1037D000BF92CF92DF92EF92FF920F931F93DF93EE
:1037E000CF93CDB7DEB762970FB6F894DEBF0FBEAA
:1037F000CDBF9A8B898B423051056105710510F45C
:1038000080E0A2C089899A89892B49F420E030E0C0
:1038100040E050E060E070E010E090E07BC042509B
:103820005040604070405A016B01E989FA89208C50
:10383000318C9A01A60160E070E080E090E05101D7
:10384000CC24DD24EE24FF2400E010E00E946E3240
:10385000C92EE989FA89B28DB38CA48D158DF68CA9
:10386000E78CD0A001A1B20FE1E0B21708F0E0E0D0
:10387000232F2B0DF1E0231708F0F0E03E2F320F3D
:10388000E1E0321708F0E0E0FE2B242F2A0FA1E040
:10389000241708F0A0E04F2F420FE1E0421708F094
:1038A000E0E0AE2B252F210FF1E0251708F0F0E026
:1038B0005A2F520FE1E0521708F0E0E0FE2B262FBE
:1038C0002F0DA1E0261708F0A0E06F2F620FE1E0B6
:1038D000621708F0E0E0AE2B272F2E0DF1E027173E
:1038E00008F0F0E07A2F720FE1E0721708F0E0E0E4
:1038F000FE2B282F2D0DE1E0281708F0E0E08F2F98
:10390000820F91E0821708F090E09E2B0C0D2B2F78
:10391000182F900FDE01119680E1FD0111928A951A
:10392000E9F7E989FA89C080D180E08CF18CF60151
:1039300086809780812F8D01EAEBCE2EE4E1DE2E8A
:10394000AA24BB24F401099562960FB6F894DEBF51
:103950000FBECDBFCF91DF911F910F91FF90EF90E0
:10396000DF90CF90BF90AF909F908F907F906F909F
:103970005F904F903F902F9008952F923F924F92DB
:103980005F926F927F928F929F92AF92BF92CF92EF
:10399000DF92EF92FF920F931F93DF93CF93CDB7F8
:1039A000DEB7E7970FB6F894DEBF0FBECDBF9DAB75
:1039B0008CAB7FAB6EAB009709F45EC161157105EE
:1039C00009F45AC1DC010D90BC91A02DBBABAAAB90
:1039D0005896ED91FC915997F9ABE8ABDC01D39681
:1039E0002D913D914D915C91D6972CA73DA74EA767
:1039F0005FA7D796ED91FC91D897FBA7EAA781E343
:103A0000DB011D928A95E9F7FE01319685E0DF0121
:103A10001D928A95E9F7211531054105510509F0F7
:103A20000AC1AAA9BBA9ED91FC91119780858B30A1
:103A300059F49A962D913D914D915C919D972CA7AB
:103A40003DA74EA75FA7F7C0EAA9FBA9028CF38D9B
:103A5000E02DAAA9BBA992968D919C919397E81B02
:103A6000F90BF9ABE8ABE7C04AA55BA59A0140E0CA
:103A700050E02EA33FA348A759A78CA59DA5AEA5AE
:103A8000BFA50097A105B10539F4EAA9FBA982A158
:103A900093A1A4A1B5A173C02AA93BA92115310501
:103AA00009F465C08CA59DA5AEA5BFA58230910582
:103AB000A105B10508F45BC00297A109B1095C0139
:103AC0006D010296A11DB11D8CA79DA7AEA7BFA732
:103AD000D90158962D903C9059979501A60160E028
:103AE00070E080E090E05101CC24DD24EE24FF243E
:103AF00000E010E00E946E32EAA9FBA9A28DF38CCF
:103B0000B48D058DD68CA20FF1E0A21708F0F0E07D
:103B1000232F2F0DE1E0231708F0E0E0CF2EC20E97
:103B200031E0C21608F030E0E32B242F2B0FF1E038
:103B3000241708F0F0E0EE2EE20E31E0E21608F075
:103B400030E0F32B252F200F41E0251708F040E04F
:103B5000FF2EF20E31E0F21608F030E0432B262F54
:103B60002D0D042F020F2A2F3C2DA70104C020E0A9
:103B700030E040E050E08EA19FA1A8A5B9A5820F3A
:103B8000931FA41FB51F1C821B82EAA9FBA92081D9
:103B900031812C013D01C8A8D9A84AA55BA5C41A4A
:103BA000D50AD9011296ED91FC9113979201A301C8
:103BB00060E070E080E090E08E010A5F1F4FB0E2AD
:103BC000EB2EF12CAAE3AA2EA8E1BA2E4E010894FE
:103BD000811C911C0995882309F44EC08B819C811E
:103BE000EAA5FBA5E80FF91FFBA7EAA728A939A9B1
:103BF000E217F30720F18AA99BA94CA55DA56EA544
:103C00007FA50E94600E6CA77DA78EA79FA71BA60D
:103C10001AA6611571058105910589F4ACA9BDA9A4
:103C200093968D919D910D90BC91A02D8CA79DA7F1
:103C3000AEA7BFA708C0EEA9FFA9FA83E9838D81CB
:103C4000882309F411CF2CA53DA54EA55FA5ACA9ED
:103C5000BDA9D3962D933D934D935C93D697EAA53A
:103C6000FBA5D896FC93EE93D797AEA9BFA98C91EC
:103C7000882319F081E001C080E0E7960FB6F89440
:103C8000DEBF0FBECDBFCF91DF911F910F91FF908F
:103C9000EF90DF90CF90BF90AF909F908F907F90EC
:103CA0006F905F904F903F902F9008952F923F928A
:103CB0004F925F926F927F928F929F92AF92BF923C
:103CC000CF92DF92EF92FF920F931F93DF93CF93E8
:103CD000CDB7DEB7CD54D0400FB6F894DEBF0FBEDF
:103CE000CDBF2C01009709F4D9C3DC0114968D9146
:103CF0009C911597892B09F4D1C316968D919C91AF
:103D00001797892B09F4CAC3E6C3E3ECF3E08EE20C
:103D1000DF011D928A95E9F75092C4034092C303D4
:103D2000F201A184B284C384D4849501A60160E029
:103D300070E080E090E009E00E94E8332EAF3FAFF2
:103D400021964FAF219722965FAF229723966FAFB0
:103D5000239724967FAF249725968FAF2597269695
:103D60009FAF2697255F31E0FEAD2F1708F030E0BA
:103D7000EFAC3E0D41E03E1508F040E02196FFAC6F
:103D800021974F0D51E04F1508F050E022960FADEE
:103D90002297500F61E0501708F060E023961FADA6
:103DA0002397610F71E0611708F070E024968FADE2
:103DB0002497780F81E024969FAD2497791708F017
:103DC00080E02596AFAD25978A0F91E08A1708F01D
:103DD00090E0D201ED91FC912696BFAD26979B0F06
:103DE0008E010F5F1F4FA5E2EA2EF12C0995882363
:103DF00009F478C329803A80EC81FD81FFA7EEA702
:103E0000FB81F8ABEE80E9AA0F8118851BAB0AABEA
:103E100089859A852C853D853DAB2CABAE88BF88C6
:103E2000C88CD98C4A8D5B8D6C8D7D8D4EAB5FAB14
:103E300068AF79AFEAA0FBA00CA11DA1EAAEFBAE72
:103E40000CAF1DAFA114B104C104D10431F400972B
:103E500009F448C35C01CC24DD240CA91DA901157B
:103E6000110541F0980140E050E02EAB3FAB48AF68
:103E700059AF0AC06EA97FA988AD99AD61157105CA
:103E80008105910509F42EC3EEA5FFA5CF01A0E0A1
:103E9000B0E086017501E81AF90A0A0B1B0BF9A9B3
:103EA0002F2F30E040E050E06EA97FA988AD99AD9A
:103EB0000E94D038E61AF70A080B190BC1010197C6
:103EC0002AA93BA945E0220F331F4A95E1F7820F4B
:103ED000931FB1010E94EF3880E090E0E61AF70AE4
:103EE000080B190B68A9262F30E040E050E0C8010C
:103EF000B7010E94163939014A0175EF67167FE054
:103F0000770670E0870670E0970608F4EBC285EF4D
:103F100068168FEF780680E0880680E0980628F41F
:103F200086E0D20118968C9303C08BE0F201808763
:103F30008CE2E5ECF3E0DF011D928A95E9F771016F
:103F400000E010E020E030E040E050E02EA2FFA2D0
:103F500008A719A72AA73BA74CA75DA79501A6010B
:103F600060E070E080E090E0AEA0BFA0CC24DD2453
:103F7000EE24FF2400E010E00E946E322093C5037F
:103F80003093C6034093C7035093C8036093C9039B
:103F90007093CA038093CB039093CC030EA51FA507
:103FA000980140E050E060E070E080E090E000E0E8
:103FB00010E00E946E32A32FB42F152F062FF72E7C
:103FC000D82ECEACC20EF1E0C21608F0F0E03FAD44
:103FD0003A0FE1E03A1708F0E0E0EF2EE30E21E0BF
:103FE000E31608F020E0E22B21964FAD21974B0F0E
:103FF00031E04B1708F030E0AE2FA40F21E0A417FA
:1040000008F020E0322B22965FAD2297510F41E05D
:10401000511708F040E0F32FF50F21E0F51708F0F5
:1040200020E0422B23966FAD2397600F31E060179D
:1040300008F030E0E42FE60F21E0E61708F020E07A
:10404000322B24967FAD24977F0D41E07F1508F039
:1040500040E0532F570F21E0571708F020E0422B84
:1040600025968FAD25978D0D21E08D1508F020E068
:10407000480F31E0481708F030E0232B26961FAD9B
:104080002697910F290FC092CD03E092CE03A09303
:10409000CF03F093D003E093D1035093D203409326
:1040A000D3032093D403D20118968C91863029F043
:1040B00064E070E080E090E004C062E070E080E0E6
:1040C00090E012E0E12EF12C012D112D6E0C7F1CE1
:1040D000801E911EA40193010E94D0386093D503E5
:1040E0007093D6038093D7039093D8033092DA036A
:1040F0002092D903F8A88F2D90E08C01029DC00179
:10410000039D900D129D900D11249093DC038093DC
:10411000DB03D20118968C91F9A8EF2CFF2400E064
:1041200010E020E030E040E050E02796EFAE279727
:104130002896FFAE289729960FAF29972A961FAF8A
:104140002A972B962FAF2B972C963FAF2C972D9617
:104150004FAF2D972E965FAF2E97863009F0FAC09D
:104160000CA91DA92EA13FA140E050E060E070E045
:1041700080E090E05801CC24DD24EE24FF2400E010
:1041800010E00E946E322796AFAC2797BB240E94A6
:104190006E32F090CD03E091CE03B091CF03109139
:1041A000D0030091D103A090D2039090D303A091AB
:1041B000D403F20EF1E0F21608F0F0E0232F2E0FF8
:1041C000E1E0231708F0E0E0EF2EE20E31E0E21626
:1041D00008F030E0E32B242F2B0FF1E0241708F038
:1041E000F0E0DE2ED20E31E0D21608F030E0F32BF4
:1041F000252F210F41E0251708F040E0CF2EC20EF9
:1042000031E0C21608F030E0432B262F200F51E09A
:10421000261708F050E0B42EB20E31E0B21608F0C6
:1042200030E0532B272F2A0D41E0271708F040E0FC
:10423000A52EA20E31E0A21608F030E0432B282F65
:10424000290D31E0281708F030E0942E920E81E01D
:10425000921608F080E0132F182BA90F1A0FF09276
:10426000E503E092E603D092E703C092E803B09240
:10427000E903A092EA039092EB031093EC032AA9BE
:104280003BA940E050E060E070E080E090E005E0B5
:104290000E94E8332F0DE1E02F1508F0E0E03E0D1D
:1042A000F1E03E1508F0F0E0BE2FB30FE1E0B317E8
:1042B00008F0E0E0FE2B4D0DE1E04D1508F0E0E0E8
:1042C000AF2FA40F31E0A41708F030E0E32B5C0D12
:1042D00041E05C1508F040E0FE2FF50F31E0F517E6
:1042E00008F030E0432B6B0D51E06B1508F050E007
:1042F000E42FE60F31E0E61708F030E0532B7A0D9B
:1043000041E07A1508F040E0652F670F31E067174C
:1043100008F030E0432B890D31E0891508F030E0DA
:10432000542F580F41E0581708F040E0342B190F74
:10433000310F2093DD03B093DE03A093DF03F093EE
:10434000E003E093E1036093E2035093E3033093CF
:10435000E403A1C02796AFAC27972EA13FA140E070
:1043600050E060E070E080E090E0BB24CC24DD24ED
:10437000EE24FF2400E010E00E946E32EEA8FFA8B9
:1043800008AD19AD1701280157016201EE24FF2481
:1043900000E010E00E946E32A091CD03E091CE03C8
:1043A0001091CF030091D003F090D103D090D203AD
:1043B000C090D303B091D403A20FF1E0A21708F08C
:1043C000F0E0232F2E0FE1E0231708F0E0E0EF2EBE
:1043D000E20E31E0E21608F030E0E32B242F210F4B
:1043E000F1E0241708F0F0E01E2F120F31E0121751
:1043F00008F030E0F32B252F200F41E0251708F0BF
:1044000040E0EF2FE20F31E0E21708F030E0432BFD
:10441000262F2F0D51E0261708F050E0642F620F71
:1044200031E0621708F030E0532B272F2D0D41E0CB
:10443000271708F040E0520F31E0521708F030E043
:10444000432B282F2C0D31E0281708F030E0420FC5
:1044500081E0421708F080E0382BB90F3B0FA093A2
:10446000DD03E092DE031093DF03E093E00360934B
:10447000E1035093E2034093E3033093E4030AAD76
:104480001BAD2CAD3DAD0093ED031093EE032093D7
:10449000EF033093F00323EC33E002C020E030E080
:1044A000C901C35BDF4F0FB6F894DEBF0FBECDBFAF
:1044B000CF91DF911F910F91FF90EF90DF90CF9000
:1044C000BF90AF909F908F907F906F905F904F9034
:1044D0003F902F9008958091C3039091C403892B3E
:1044E000E9F613CC1092C4031092C303D7CF2F92D6
:1044F0003F924F925F926F927F928F929F92AF9274
:10450000BF92CF92DF92EF92FF920F931F93DF93B0
:10451000CF93CDB7DEB769970FB6F894DEBF0FBE65
:10452000CDBF9D878C879B01892B09F4E2C2411581
:10453000510509F4DEC2DA010D900020E9F7A41B51
:10454000B50BCD010B966DE070E00E94EF38462F61
:104550004F5F4B87D90193968D919D910D90BC91A2
:10456000A02D8E839F83A887B987AC85BD85ED91EB
:10457000FC9180852E813F81488559852115310523
:104580004105510571F48B3029F5AC85BD859A96AE
:104590008D919D910D90BC91A02D8E839F83A887B6
:1045A000B9871E8A1F8A188E198E332444245524F5
:1045B0006624DD24CC24BB24AA2422249924882424
:1045C00077241E861F86188A198A1A8A1B8A1C8AD3
:1045D0001D8A34C0EC85FD85D2A0C3A0B4A0A5A0DF
:1045E00026A097A080A471A4F28DFE87AC85BD851E
:1045F0005B96BC91BF87EC85FD85F48DF88BAC850F
:10460000BD855D96BC91B98BEC85FD85F68DFA8BE9
:10461000AC85BD855F96BC91BB8BEC85FD85F0A11B
:10462000FC8BAC85BD859196BC91BD8BDE8ACF8A13
:10463000B88EA98E322C492C582C672C1A86EE8500
:10464000DE1609F0D1C1FF85CF1609F0CDC128894A
:10465000B21609F0C9C13989A31609F0C5C14A8942
:10466000241609F0C1C15B89951609F0BDC18C897A
:10467000881609F0B9C19D89791609F0B5C12E8156
:104680003F8148855985211531054105510509F4BA
:1046900030C28D2D8C298B298A2982298929882944
:1046A000872909F4BAC08C859D85BA01A9010E94A9
:1046B000600E611571058105910509F0AAC08C8510
:1046C0009D854E815F816885798501E010E020E05D
:1046D00030E00E948D116A837B838C839D836115FA
:1046E00071058105910509F404C2DC01CB01029733
:1046F000A109B1095C016D010296A11DB11D8A835A
:104700009B83AC83BD83AC85BD8558962D903C9032
:1047100059979501A60160E070E080E090E05101BA
:10472000CC24DD24EE24FF2400E010E00E946E3251
:10473000C92EEC85FD85B28DB38CA48D058DF68CCC
:10474000E78CD0A011A1B20FE1E0B21708F0E0E0D1
:10475000232F2B0DF1E0231708F0F0E03E2F320F4E
:10476000E1E0321708F0E0E0FE2B242F2A0FA1E051
:10477000241708F0A0E04F2F420FE1E0421708F0A5
:10478000E0E0AE2B252F200FF1E0251708F0F0E038
:104790005A2F520FE1E0521708F0E0E0FE2B262FCF
:1047A0002F0DA1E0261708F0A0E06F2F620FE1E0C7
:1047B000621708F0E0E0AE2B272F2E0DF1E027174F
:1047C00008F0F0E07A2F720FE1E0721708F0E0E0F5
:1047D000FE2B282F2D0DE1E0281708F0E0E08F2FA9
:1047E000820F91E0821708F090E06E2E692A1C0D6E
:1047F000BE8B3F8B488F598F362E472E582E610E19
:104800008C859D854A815B816C817D810E94DF1B47
:1048100078C16E837F83888799872E813F81488501
:104820005985223031054105510548F4DD24CC2459
:10483000BB24AA2422249924882477248DC08E8125
:104840009F81A885B9850297A109B1095C016D0115
:104850000296A11DB11D8E839F83A887B987AC8561
:10486000BD8558962D903C9059979501A60160E022
:1048700070E080E090E05101CC24DD24EE24FF24A0
:1048800000E010E00E946E32C92EEC85FD85B28DED
:10489000B38CA48D058DF68CE78CD0A011A1B20F3E
:1048A000E1E0B21708F0E0E0232F2B0DF1E0231731
:1048B00008F0F0E03E2F320FE1E0321708F0E0E0C0
:1048C000FE2B242F2A0FA1E0241708F0A0E04F2F81
:1048D000420FE1E0421708F0E0E0AE2B252F200F59
:1048E000F1E0251708F0F0E05A2F520FE1E05217DF
:1048F00008F0E0E0FE2B262F2F0DA1E0261708F090
:10490000A0E06F2F620FE1E0621708F0E0E0AE2B4D
:10491000272F2E0DF1E0271708F0F0E07A2F720F05
:10492000E1E0721708F0E0E0FE2B282F2D0DE1E00A
:10493000281708F0E0E08F2F820F91E0821708F02F
:1049400090E07E2E792A1C0DDB2EC32EB42EA52ED0
:10495000262E972E882E710EAC85BD8558968D918A
:104960009C9159979C01FD2DF80FE1E0FD1508F091
:10497000E0E08C2D830F21E08C1508F020E06E2FF5
:10498000680F91E0681708F090E0922B9B0D81E092
:104990009B1508F080E0582F5A0D81E05A1508F059
:1049A00080E0482F420D81E0421508F080E0382F6A
:1049B000390D81E0391508F080E0880D21E0881577
:1049C00008F020E0FE876F87988B598B4A8B3B8BD2
:1049D0008C8B270D2D8BDE8ACF8AB88EA98E322C38
:1049E000492C582C672C1A86AC85BD85ED91FC911D
:1049F0000190F081E02D2D2D3C2D4B2D5A2D622D57
:104A0000792D882D972D8E010F5F1F4FB1E0EB2E72
:104A1000F12C0995882309F46CC08981853E11F039
:104A20008823B9F5BA85BF5FBA87EB85BE1708F052
:104A300068C07D2D705E81E07D1508F080E0682FF4
:104A40006C0D81E06C1508F080E0582F5B0D81E063
:104A50005B1508F080E0482F4A0D81E04A1508F008
:104A600080E0382F320D81E0321508F080E0282FE9
:104A7000290D81E0291508F080E0880D91E0881566
:104A800008F090E06B015A01232E922E882E790EA9
:104A9000D6CD7D2D705E81E07D1508F080E0682F19
:104AA0006C0D81E06C1508F080E0582F5B0D81E003
:104AB0005B1508F080E0482F4A0D81E04A1508F0A8
:104AC00080E0382F320D81E0321508F080E0282F89
:104AD000290D81E0291508F080E0880D91E0881506
:104AE00008F090E06B015A01232E922E882E790E49
:104AF0009DCD1E8A1F8A188E198E33244424552476
:104B000066242E893F89488D598D632D742D852DFE
:104B1000962D69960FB6F894DEBF0FBECDBFCF912C
:104B2000DF911F910F91FF90EF90DF90CF90BF909A
:104B3000AF909F908F907F906F905F904F903F903D
:104B40002F9008952F923F924F925F926F927F9293
:104B50008F929F92AF92BF92CF92DF92EF92FF928D
:104B60000F931F93DF93CF93CDB7DEB7A5970FB603
:104B7000F894DEBF0FBECDBFFC016B01009709F4B6
:104B8000B3C16115710509F4AFC10190F081E02D49
:104B9000848195819BA38AA3DB0199962C90999798
:104BA0009A96BC91BCA3FB0173A464A455A446A42B
:104BB00037A4F0A9FDA3062FFD2CFB0101900020D6
:104BC000E9F731971E2F161B812F90E00C966DE0B0
:104BD00070E00E94033969A3CE01019660E270E0A3
:104BE0004BE050E00E949F35C6016EE270E00E94EB
:104BF000E235FC010097E1F09C012F5F3F4F81817E
:104C00008823B1F0D9010D900020E9F71197A21B7C
:104C1000B30B8A2F8095180FBE01675F7F4F4A2F15
:104C2000A43008F043E0CB01B90150E00E94963572
:104C3000CE0101961930A0F4602F7F2D412F50E056
:104C40000E949635D6018C918E3241F511968C9149
:104C500011978E3211F412968C918823F1F01EC0B8
:104C6000DC01802F9F2D9C01F90188E001900D92BD
:104C70008150E1F7F60181A1982F92959F70803ABB
:104C800010F4905D01C09F598F708A3010F4805DE0
:104C900001C08F599F83888701C019A28981853EF1
:104CA00011F485E0898385E1FE013C96DF011D92C8
:104CB0008A95E9F7F60180A18C8721A132A143A151
:104CC00054A1CA01AA27BB279E8B8D8B3C8F2B8FAB
:104CD00085A196A1A7A1B0A58D8F9E8FAF8FB8A3F8
:104CE000F9A18F2F90E0A5E0880F991FAA95E1F711
:104CF0009C0140E050E060E070E080E090E0B22E87
:104D0000B20CA1E0B21608F0A0E0ECA1E30FF1E0D4
:104D1000E31708F0F0E0EA2EEE0EA1E0EE1608F040
:104D2000A0E0FA2BE1E0741608F0E0E0FF2EF70CAB
:104D3000F1E0F71408F0F0E0EF2BF1E0651608F071
:104D4000F0E00E2F060DE1E0061508F0E0E0FE2B86
:104D5000E1E0561608F0E0E01F2F150DF1E0151503
:104D600008F0F0E0EF2BF1E0471608F0F0E0BE2F7E
:104D7000B40DE1E0B41508F0E0E0FE2BA1E0381638
:104D800008F0A0E08F2F830DE1E0831508F0E0E04C
:104D9000AE2B2B2D3E2D4F2D502F612F7B2F9DA104
:104DA0009A0F8E010F5F1F4FF0E2EF2EF12CAAA198
:104DB000BBA1FD010995882309F496C0B980FE01C5
:104DC00032969E01245F3F4F8B2D8695B794BB246E
:104DD000B794B82A8191B80EE217F307A9F7A9A0F2
:104DE0004E010894811C911C7AC0C4016FEF70E0E1
:104DF00040E250E00E949F35EDE0AE9ED0011124CC
:104E00001D97AC0DBD1D91E0F401E90FF11D8C91D2
:104E10008083892F8F5FF401E80FF11D10829E5F60
:104E20009B3019F09A3121F402C09EE001C09CE150
:104E30008C91882321F09F3110F41196E5CFA9823F
:104E4000F9A1AF1619F48A2D806489832FE02C878D
:104E5000BE861D861B8E1C8E222D3CA1472D562DF5
:104E6000652D742D832D9DA18401E0E2EE2EF12CA1
:104E7000AAA1BBA1FD010995722D705E81E072159A
:104E800008F080E06CA1680F81E0BCA16B1708F00E
:104E900080E0582F570D81E0571508F080E0482F2B
:104EA000460D81E0461508F080E0382F350D81E091
:104EB000351508F080E0282F240D81E0241508F036
:104EC00080E0830D91E0831508F090E0272E6CA31D
:104ED0003A012901382EEDA1E90FEDA3AA94AA20E9
:104EE00009F083CF81E001C080E0A5960FB6F89469
:104EF000DEBF0FBECDBFCF91DF911F910F91FF900D
:104F0000EF90DF90CF90BF90AF909F908F907F9069
:104F10006F905F904F903F902F9008952F923F9207
:104F20004F925F926F927F928F929F92AF92BF92B9
:104F3000CF92DF92EF92FF920F931F93DF93CF9365
:104F4000CDB7DEB72E970FB6F894DEBF0FBECDBF3C
:104F500098878F837A8769875E874D87892B09F4C5
:104F6000ACC16115710509F4A8C1DB018C918823DE
:104F700009F4A3C1452BB1F4A0C189859A856B853D
:104F80007C850E94BC35009789F4EF81F88583A168
:104F900094A1A5A1B6A183AB94ABA5ABB6AB10AE63
:104FA00017AA8BC1FD85FB878E858C878F8198859D
:104FB0006D857E850E94BD1C8823F9F6AF81B8857A
:104FC0000D90BC91A02DBE83AD83CD0140E050E09B
:104FD00060E070E001E010E020E030E00E948D1120
:104FE00069837A838B839C836115710581059105A3
:104FF00009F463C18D819E8149815A816B817C81D5
:105000000E94DF1B81E3ED85FE8511928A95E9F709
:1050100080E1AD85BE8590968C9389819A81AB8124
:10502000BC810297A109B1095C016D010296A11D25
:10503000B11D89839A83AB83BC83AD81BE815896B1
:105040002D903C9059979501A60160E070E080E0BA
:1050500090E05101CC24DD24EE24FF2400E010E098
:105060000E946E32ED81FE81A28DE38C148D058D40
:10507000F68CD78CC0A0B1A1A20FF1E0A21708F066
:10508000F0E0232F2E0DE1E0231708F0E0E0EF2EF3
:10509000E20E31E0E21608F030E0E32B242F210F7E
:1050A000F1E0241708F0F0E01E2F120F31E0121784
:1050B00008F030E0F32B252F200F41E0251708F0F2
:1050C00040E00F2F020F31E0021708F030E0432BD1
:1050D000262F2F0D51E0261708F050E0642F620FA5
:1050E00031E0621708F030E0532B272F2D0D41E0FF
:1050F000271708F040E0520F31E0521708F030E077
:10510000432B282F2C0D31E0281708F030E0420FF8
:1051100081E0421708F080E0382BB90F3B0FED8596
:10512000FE85A1A7E2A613A704A765A756A747A7D0
:1051300030AB8EE2808389819A81AB81BC81ED8521
:10514000FE8581A392A3A3A3B4A38D819E81BF01F9
:105150000E94A225882309F4A8C0AD85BE85999632
:105160008C9199979A962C919A979B963C919B97A4
:105170009C964C919C979D966C919D979E96FC90C9
:105180009E979F96AC91ED85FE8510A9B82FB05ED5
:1051900091E0B81708F090E0092F020F81E00217A4
:1051A00008F080E0782F730F81E0731708F080E03B
:1051B000582F540F81E0541708F080E0382F360F35
:1051C00081E0361708F080E0282F2F0D81E02F15A1
:1051D00008F080E0982F9A0F81E09A1708F080E09D
:1051E000810FED85FE85B1A702A773A754A735A748
:1051F00026A797A780AB8EE28183EF81F88583A1F4
:1052000094A1A5A1B6A1ED85FE8581A392A3A3A338
:10521000B4A38D819E81BF010E94A225882309F439
:1052200044C08B859C8569857A854FE150E00E945A
:10523000D33589819A81AB81BC81ED85FE8581A3BF
:1052400092A3A3A3B4A38D819E816F817885AF01C2
:105250000E947722AD85BE8599962C9399979A9650
:105260003C939A979B964C939B979C965C939C97A8
:105270009D966C939D979E967C939E979F968C93FC
:105280009F97D0969C93232B242B252B262B272BC3
:10529000282B292B51F08D819E816D857E850E9462
:1052A000A225882311F081E009C08D819E8149816A
:1052B0005A816B817C810E94D10F80E02E960FB6BF
:1052C000F894DEBF0FBECDBFCF91DF911F910F913C
:1052D000FF90EF90DF90CF90BF90AF909F908F9016
:1052E0007F906F905F904F903F902F900895AF9276
:1052F000BF92CF92DF92EF92FF920F931F93CF93C3
:10530000DF938C017B01EA01009709F454C0611519
:10531000710509F450C0FB018081882309F44BC05A
:105320004115510509F447C0B42EAD2EC801BE0188
:105330000E94BD1C882399F0C7016B2D7A2D0E9415
:10534000BC35009799F7F80183A194A1A5A1B6A156
:1053500083AB94ABA5ABB6AB10AE17AA2CC0F801CB
:10536000C080D18081E3FE0111928A95E9F78B2DEF
:105370009A2DB7014FE150E00E94D335C601B80124
:10538000AE010E94772229A73AA74BA75CA76DA779
:105390007EA78FA798AB232B242B252B262B272BDF
:1053A000282B292B41F0C601BE010E94A22588238B
:1053B00019F081E001C080E0DF91CF911F910F9142
:1053C000FF90EF90DF90CF90BF90AF9008952F9215
:1053D0003F924F925F926F927F928F929F92AF9285
:1053E000BF92CF92DF92EF92FF920F931F93DF93C2
:1053F000CF93CDB7DEB762970FB6F894DEBF0FBE7E
:10540000CDBF1C014B875C876D877E87009709F4B1
:1054100015C2DC019396CD90DD90ED90FC909697AF
:10542000ED91FC91208D318DC114D104E104F10482
:1054300099F04B845C846D847E844901AA24BB244A
:1054400022273327A901281939094A095B092F871F
:10545000388B498B5A8B20C08B859C85AD85BE854A
:105460000097A105B10509F497C1E3CFD1018D9152
:105470009C91B701A6010E94600E6115710581051E
:10548000910581F02F85388949895A89420E531E2A
:10549000641E751E6B017C0184149504A604B70478
:1054A00028F3E6C1C301B201680D791D8A1D9B1D59
:1054B0006150704080409040A50194010E941639CF
:1054C00089019A01D1018D919C91B701A6010E9499
:1054D0008D11611571058105910509F4AFC1C114E4
:1054E000D104E104F10439F4F10163A374A385A3A9
:1054F00096A36B017C012B853C854D855E85D10192
:1055000097962D933D934D935C939A972115310572
:105510004105510529F4F10113A214A215A216A206
:10552000F10181919191BF010E94A225882309F484
:1055300085C12B853C854D855E852115310541054D
:10554000510531F4D1018D919C91B701A60122C181
:1055500084149504A604B70408F41EC1F101A080C8
:10556000B180A114B10409F417C1F2E0CF16D1043F
:10557000E104F10408F410C1C501B701A6010E94BD
:10558000600E6F83788789879A87D5018D909C906C
:10559000F40180858B3009F07BC08FEF9FEFAFEF78
:1055A000BFE08B839C83AD83BE83B2E0CC0CDD1C5B
:1055B000EE1CFF1CBA95D1F7B701A60180E090E080
:1055C000A0E0B0E0F501228513850485C584F6844A
:1055D000E784D0885188240F31E0241708F030E0A8
:1055E000E12FE50F11E0E51708F010E03E0FF1E0C4
:1055F0003E1708F0F0E01F2BE62FE00F01E0E61762
:1056000008F000E0612E6E0EF1E06E1608F0F0E09A
:105610000F2BE72FEC0DF1E0E71708F0F0E0702E0C
:105620007E0E11E07E1608F010E0F12BE1E0F81696
:1056300008F0E0E0CF2ECF0CF1E0CF1408F0F0E05E
:10564000EF2BF1E0E91608F0F0E00E2F0E0DE1E08F
:105650000E1508F0E0E0FE2B11E0DA1608F010E07D
:105660008F2F8D0DE1E08D1508F0E0E01E2BD401A9
:105670001496ED91FC911597A3016C2D702F912F2D
:10568000950D8E010D5F1F4FA4E0EA2EF12C73C023
:105690008FEF9FEF9A838983CC0CDD1CEE1CFF1CDF
:1056A000B701A60180E090E0A0E0B0E0F50122851E
:1056B00013850485C584F684E784D0885188240F37
:1056C00031E0241708F030E0E12FE50F11E0E51795
:1056D00008F010E03E0FF1E03E1708F0F0E01F2B5D
:1056E000E62FE00F01E0E61708F000E0612E6E0EF5
:1056F000F1E06E1608F0F0E00F2BE72FEC0DF1E073
:10570000E71708F0F0E0702E7E0E11E07E1608F02C
:1057100010E0F12BE1E0F81608F0E0E0CF2ECF0C1E
:10572000F1E0CF1408F0F0E0EF2BF1E0E91608F01B
:10573000F0E00E2F0E0DE1E00E1508F0E0E0FE2B7C
:1057400011E0DA1608F010E08F2F8D0DE1E08D15D5
:1057500008F0E0E01E2BD4011496ED91FC91159712
:10576000A3016C2D702F912F950D8E010F5F1F4F90
:10577000A2E0EA2EF12C0995882371F02F8138855B
:1057800049855A85211531054105510529F0C50185
:10579000BA01A9010E94D10F8B859C85AD85BE857C
:1057A0008C019D0140E050E060E070E0D101DA96AC
:1057B0008C91DA97781780F18717F1F5D9968C914B
:1057C000D997681748F18617B9F5D8968C91D8976C
:1057D000581710F1851781F5D7968C91D7974817F0
:1057E000D8F0841749F5D6968C91D6973817A0F043
:1057F000831711F5D5968C91D597281768F08217E5
:10580000D9F4D4968C91D497181730F08117A1F45D
:10581000D3968C91081780F4F10103AB14AB25AB40
:1058200036AB17AA10AE11AE12AED101DB961D92A7
:105830001D921D921C92DE9781E001C080E062966D
:105840000FB6F894DEBF0FBECDBFCF91DF911F9191
:105850000F91FF90EF90DF90CF90BF90AF909F900F
:105860008F907F906F905F904F903F902F90089512
:10587000C114D104E104F10409F414CE3CCECF925A
:10588000DF92EF92FF920F931F93CF93DF93EC0180
:105890006B01009709F451C06115710509F44DC001
:1058A0002BA93CA95DA96EA9413061F0413020F0DF
:1058B000423009F042C00FC0F601E080F180028161
:1058C000138116C0C901A52FB62FF601E080F18023
:1058D0000281138109C0F601E080F1800281138109
:1058E0008FA198A5A9A5BAA5E80EF91E0A1F1B1F2E
:1058F0008FA198A5A9A5BAA58E159F05A007B107E8
:1059000038F4CE01B801A7010E94E7298823A9F045
:10591000A8019701EBAA3CAB4DAB5EAB1FAA18AE3A
:1059200019AE1AAE1BAE1CAE1DAE1EAEF601E08265
:10593000F1820283138381E001C080E0DF91CF9187
:105940001F910F91FF90EF90DF90CF9008952F92CD
:105950003F924F925F926F927F928F929F92AF92FF
:10596000BF92CF92DF92EF92FF920F931F93DF933C
:10597000CF93CDB7DEB766970FB6F894DEBF0FBEF4
:10598000CDBF9E8B8D8B7E876D87588B4F87009701
:1059900009F48EC3672B09F48BC3452B09F488C324
:1059A000DC01D3968C90D397D4969C90D497D596BF
:1059B000AC90D597D696BC90D697D796CC90D797E3
:1059C000D896DC90D897D996EC90D997DA96FC9037
:1059D000FC0187A190A5A1A5B2A59C01AD0160E045
:1059E00070E080E090E09F1508F462C3F91609F5B5
:1059F0008E1508F45DC3E816E1F47D1508F458C36C
:105A0000D716B9F46C1508F453C3C61691F45B1598
:105A100008F44EC3B51669F44A1508F449C3A41630
:105A200041F4391508F444C3931619F4281508F401
:105A30003FC3AD89BE892D913C911197F901008C2E
:105A4000F18DE02DFC87EB87DB968D919D910D907C
:105A5000BC91A02D8F839887A987BA870097A1054D
:105A6000B10509F0AEC0AD89BE8993968D919D9127
:105A70000D90BC91A02D8F839887A987BA87009736
:105A8000A105B10529F5882D89298A298B298C2919
:105A90008D298E298F2909F00BC3C90140E050E000
:105AA00060E070E001E010E020E030E00E948D1145
:105AB0006F83788789879A87ED89FE8963A374A3AA
:105AC00085A396A3611571058105910509F4F0C2BE
:105AD000AD89BE89D3966C91D397D4967C91D49797
